{
  "contractName": "Election",
  "abi": [
    {
      "inputs": [],
      "stateMutability": "nonpayable",
      "type": "constructor"
    },
    {
      "inputs": [],
      "name": "ElectionPhase",
      "outputs": [
        {
          "internalType": "enum Election.PHASE",
          "name": "",
          "type": "uint8"
        }
      ],
      "stateMutability": "view",
      "type": "function"
    },
    {
      "inputs": [],
      "name": "admin",
      "outputs": [
        {
          "internalType": "address",
          "name": "",
          "type": "address"
        }
      ],
      "stateMutability": "view",
      "type": "function"
    },
    {
      "inputs": [],
      "name": "candidatesCount",
      "outputs": [
        {
          "internalType": "uint256",
          "name": "",
          "type": "uint256"
        }
      ],
      "stateMutability": "view",
      "type": "function"
    },
    {
      "inputs": [
        {
          "internalType": "string",
          "name": "",
          "type": "string"
        }
      ],
      "name": "parties",
      "outputs": [
        {
          "internalType": "string",
          "name": "party_id",
          "type": "string"
        },
        {
          "internalType": "string",
          "name": "partyName",
          "type": "string"
        },
        {
          "internalType": "string",
          "name": "partyImage",
          "type": "string"
        },
        {
          "internalType": "uint256",
          "name": "partyVotes",
          "type": "uint256"
        }
      ],
      "stateMutability": "view",
      "type": "function"
    },
    {
      "inputs": [
        {
          "internalType": "uint256",
          "name": "",
          "type": "uint256"
        }
      ],
      "name": "party_ids_list",
      "outputs": [
        {
          "internalType": "string",
          "name": "",
          "type": "string"
        }
      ],
      "stateMutability": "view",
      "type": "function"
    },
    {
      "inputs": [
        {
          "internalType": "uint256",
          "name": "",
          "type": "uint256"
        }
      ],
      "name": "voter_ids_list",
      "outputs": [
        {
          "internalType": "string",
          "name": "",
          "type": "string"
        }
      ],
      "stateMutability": "view",
      "type": "function"
    },
    {
      "inputs": [
        {
          "internalType": "string",
          "name": "",
          "type": "string"
        }
      ],
      "name": "voters",
      "outputs": [
        {
          "internalType": "string",
          "name": "voter_id",
          "type": "string"
        },
        {
          "internalType": "string",
          "name": "votedParty_id",
          "type": "string"
        },
        {
          "internalType": "bool",
          "name": "is_registerd",
          "type": "bool"
        },
        {
          "internalType": "bool",
          "name": "hasVoted",
          "type": "bool"
        }
      ],
      "stateMutability": "view",
      "type": "function"
    },
    {
      "inputs": [],
      "name": "votersCount",
      "outputs": [
        {
          "internalType": "uint256",
          "name": "",
          "type": "uint256"
        }
      ],
      "stateMutability": "view",
      "type": "function"
    },
    {
      "inputs": [
        {
          "internalType": "enum Election.PHASE",
          "name": "x",
          "type": "uint8"
        }
      ],
      "name": "changeState",
      "outputs": [],
      "stateMutability": "nonpayable",
      "type": "function"
    },
    {
      "inputs": [
        {
          "internalType": "string",
          "name": "_id",
          "type": "string"
        },
        {
          "internalType": "string",
          "name": "_party",
          "type": "string"
        },
        {
          "internalType": "string",
          "name": "_image",
          "type": "string"
        }
      ],
      "name": "addCandidate",
      "outputs": [],
      "stateMutability": "nonpayable",
      "type": "function"
    },
    {
      "inputs": [
        {
          "internalType": "string",
          "name": "_voter_id",
          "type": "string"
        }
      ],
      "name": "voterRegisteration",
      "outputs": [],
      "stateMutability": "nonpayable",
      "type": "function"
    },
    {
      "inputs": [
        {
          "internalType": "string",
          "name": "_id",
          "type": "string"
        },
        {
          "internalType": "string",
          "name": "_votedCandidate_id",
          "type": "string"
        }
      ],
      "name": "vote",
      "outputs": [],
      "stateMutability": "nonpayable",
      "type": "function"
    },
    {
      "inputs": [],
      "name": "getWinner",
      "outputs": [
        {
          "internalType": "string",
          "name": "",
          "type": "string"
        }
      ],
      "stateMutability": "view",
      "type": "function"
    },
    {
      "inputs": [],
      "name": "addCandidateToResultList",
      "outputs": [],
      "stateMutability": "nonpayable",
      "type": "function"
    },
    {
      "inputs": [],
      "name": "getUpdatedCandidateList",
      "outputs": [
        {
          "components": [
            {
              "internalType": "string",
              "name": "party_id",
              "type": "string"
            },
            {
              "internalType": "string",
              "name": "partyName",
              "type": "string"
            },
            {
              "internalType": "string",
              "name": "partyImage",
              "type": "string"
            },
            {
              "internalType": "uint256",
              "name": "partyVotes",
              "type": "uint256"
            }
          ],
          "internalType": "struct Election.Party[]",
          "name": "",
          "type": "tuple[]"
        }
      ],
      "stateMutability": "view",
      "type": "function"
    },
    {
      "inputs": [],
      "name": "allCandidates",
      "outputs": [
        {
          "components": [
            {
              "internalType": "string",
              "name": "party_id",
              "type": "string"
            },
            {
              "internalType": "string",
              "name": "partyName",
              "type": "string"
            },
            {
              "internalType": "string",
              "name": "partyImage",
              "type": "string"
            },
            {
              "internalType": "uint256",
              "name": "partyVotes",
              "type": "uint256"
            }
          ],
          "internalType": "struct Election.Party[]",
          "name": "",
          "type": "tuple[]"
        }
      ],
      "stateMutability": "view",
      "type": "function"
    },
    {
      "inputs": [],
      "name": "getCandidateIdList",
      "outputs": [
        {
          "internalType": "string[]",
          "name": "",
          "type": "string[]"
        }
      ],
      "stateMutability": "view",
      "type": "function"
    },
    {
      "inputs": [],
      "name": "getVoterIdList",
      "outputs": [
        {
          "internalType": "string[]",
          "name": "",
          "type": "string[]"
        }
      ],
      "stateMutability": "view",
      "type": "function"
    },
    {
      "inputs": [],
      "name": "allVoters",
      "outputs": [
        {
          "components": [
            {
              "internalType": "string",
              "name": "voter_id",
              "type": "string"
            },
            {
              "internalType": "string",
              "name": "votedParty_id",
              "type": "string"
            },
            {
              "internalType": "bool",
              "name": "is_registerd",
              "type": "bool"
            },
            {
              "internalType": "bool",
              "name": "hasVoted",
              "type": "bool"
            }
          ],
          "internalType": "struct Election.Voter[]",
          "name": "",
          "type": "tuple[]"
        }
      ],
      "stateMutability": "view",
      "type": "function"
    },
    {
      "inputs": [],
      "name": "resetElection",
      "outputs": [],
      "stateMutability": "nonpayable",
      "type": "function"
    }
  ],
  "bytecode": "0x60806040523480156200001157600080fd5b50336000806101000a81548173ffffffffffffffffffffffffffffffffffffffff021916908373ffffffffffffffffffffffffffffffffffffffff16021790555060008060146101000a81548160ff021916908360038111156200007a576200007962000085565b5b0217905550620000b4565b7f4e487b7100000000000000000000000000000000000000000000000000000000600052602160045260246000fd5b6131e080620000c46000396000f3fe608060405234801561001057600080fd5b506004361061012c5760003560e01c806390b24c72116100ad578063d328821a11610071578063d328821a14610327578063e8d5940d14610345578063e8f3052314610361578063f851a4401461036b578063f9e7284f146103895761012c565b806390b24c721461026c57806398c079381461029c578063aa09ac3c146102ba578063ad71f8dc146102ed578063babb852b146103095761012c565b806353fa2e64116100f457806353fa2e64146101b157806356581147146101e45780637a5d56381461020057806381c40715146102305780638e7ea5b21461024e5761012c565b80630c09c5761461013157806311688f801461013b578063128eb08a14610159578063268f1153146101775780632d35a8a214610193575b600080fd5b6101396103a7565b005b6101436104f4565b6040516101509190612020565b60405180910390f35b6101616105cd565b60405161016e919061218e565b60405180910390f35b610191600480360381019061018c91906121e9565b610862565b005b61019b61088f565b6040516101a89190612225565b60405180910390f35b6101cb60048036038101906101c69190612375565b610895565b6040516101db9493929190612423565b60405180910390f35b6101fe60048036038101906101f99190612375565b610a05565b005b61021a600480360381019061021591906124a2565b610c03565b60405161022791906124cf565b60405180910390f35b610238610caf565b604051610245919061218e565b60405180910390f35b610256610ece565b60405161026391906124cf565b60405180910390f35b610286600480360381019061028191906124a2565b6111d7565b60405161029391906124cf565b60405180910390f35b6102a4611283565b6040516102b19190612225565b60405180910390f35b6102d460048036038101906102cf9190612375565b611289565b6040516102e494939291906124f1565b60405180910390f35b6103076004803603810190610302919061254b565b611467565b005b610311611652565b60405161031e9190612669565b60405180910390f35b61032f611665565b60405161033c9190612020565b60405180910390f35b61035f600480360381019061035a9190612684565b61173e565b005b610369611a11565b005b610373611b59565b604051610380919061273d565b60405180910390f35b610391611b7d565b60405161039e9190612893565b60405180910390f35b600260038111156103bb576103ba6125f2565b5b600060149054906101000a900460ff1660038111156103dd576103dc6125f2565b5b1461041d576040517f08c379a000000000000000000000000000000000000000000000000000000000815260040161041490612901565b60405180910390fd5b60005b6002805490508110156104f157600460016002838154811061044557610444612921565b5b9060005260206000200160405161045c9190612a53565b90815260200160405180910390209080600181540180825580915050600190039060005260206000209060040201600090919091909150600082018160000190816104a79190612c17565b50600182018160010190816104bc9190612c17565b50600282018160020190816104d19190612c17565b5060038201548160030155505080806104e990612d2e565b915050610420565b50565b60606006805480602002602001604051908101604052809291908181526020016000905b828210156105c45783829060005260206000200180546105379061297f565b80601f01602080910402602001604051908101604052809291908181526020018280546105639061297f565b80156105b05780601f10610585576101008083540402835291602001916105b0565b820191906000526020600020905b81548152906001019060200180831161059357829003601f168201915b505050505081526020019060010190610518565b50505050905090565b6060600260038111156105e3576105e26125f2565b5b600060149054906101000a900460ff166003811115610605576106046125f2565b5b14610645576040517f08c379a000000000000000000000000000000000000000000000000000000000815260040161063c90612901565b60405180910390fd5b6004805480602002602001604051908101604052809291908181526020016000905b82821015610859578382906000526020600020906004020160405180608001604052908160008201805461069a9061297f565b80601f01602080910402602001604051908101604052809291908181526020018280546106c69061297f565b80156107135780601f106106e857610100808354040283529160200191610713565b820191906000526020600020905b8154815290600101906020018083116106f657829003601f168201915b5050505050815260200160018201805461072c9061297f565b80601f01602080910402602001604051908101604052809291908181526020018280546107589061297f565b80156107a55780601f1061077a576101008083540402835291602001916107a5565b820191906000526020600020905b81548152906001019060200180831161078857829003601f168201915b505050505081526020016002820180546107be9061297f565b80601f01602080910402602001604051908101604052809291908181526020018280546107ea9061297f565b80156108375780601f1061080c57610100808354040283529160200191610837565b820191906000526020600020905b81548152906001019060200180831161081a57829003601f168201915b5050505050815260200160038201548152505081526020019060010190610667565b50505050905090565b80600060146101000a81548160ff02191690836003811115610887576108866125f2565b5b021790555050565b60085481565b6005818051602081018201805184825260208301602085012081835280955050505050506000915090508060000180546108ce9061297f565b80601f01602080910402602001604051908101604052809291908181526020018280546108fa9061297f565b80156109475780601f1061091c57610100808354040283529160200191610947565b820191906000526020600020905b81548152906001019060200180831161092a57829003601f168201915b50505050509080600101805461095c9061297f565b80601f01602080910402602001604051908101604052809291908181526020018280546109889061297f565b80156109d55780601f106109aa576101008083540402835291602001916109d5565b820191906000526020600020905b8154815290600101906020018083116109b857829003601f168201915b5050505050908060020160009054906101000a900460ff16908060020160019054906101000a900460ff16905084565b60006003811115610a1957610a186125f2565b5b600060149054906101000a900460ff166003811115610a3b57610a3a6125f2565b5b14610a7b576040517f08c379a0000000000000000000000000000000000000000000000000000000008152600401610a7290612dc2565b60405180910390fd5b60001515600582604051610a8f9190612e13565b908152602001604051809103902060020160009054906101000a900460ff16151514610af0576040517f08c379a0000000000000000000000000000000000000000000000000000000008152600401610ae790612e76565b60405180910390fd5b604051806080016040528082815260200160405180602001604052806000815250815260200160011515815260200160001515815250600582604051610b369190612e13565b90815260200160405180910390206000820151816000019081610b599190612e96565b506020820151816001019081610b6f9190612e96565b5060408201518160020160006101000a81548160ff02191690831515021790555060608201518160020160016101000a81548160ff021916908315150217905550905050600681908060018154018082558091505060019003906000526020600020016000909190919091509081610be79190612e96565b5060096000815480929190610bfb90612d2e565b919050555050565b60028181548110610c1357600080fd5b906000526020600020016000915090508054610c2e9061297f565b80601f0160208091040260200160405190810160405280929190818152602001828054610c5a9061297f565b8015610ca75780601f10610c7c57610100808354040283529160200191610ca7565b820191906000526020600020905b815481529060010190602001808311610c8a57829003601f168201915b505050505081565b60606003805480602002602001604051908101604052809291908181526020016000905b82821015610ec55783829060005260206000209060040201604051806080016040529081600082018054610d069061297f565b80601f0160208091040260200160405190810160405280929190818152602001828054610d329061297f565b8015610d7f5780601f10610d5457610100808354040283529160200191610d7f565b820191906000526020600020905b815481529060010190602001808311610d6257829003601f168201915b50505050508152602001600182018054610d989061297f565b80601f0160208091040260200160405190810160405280929190818152602001828054610dc49061297f565b8015610e115780601f10610de657610100808354040283529160200191610e11565b820191906000526020600020905b815481529060010190602001808311610df457829003601f168201915b50505050508152602001600282018054610e2a9061297f565b80601f0160208091040260200160405190810160405280929190818152602001828054610e569061297f565b8015610ea35780601f10610e7857610100808354040283529160200191610ea3565b820191906000526020600020905b815481529060010190602001808311610e8657829003601f168201915b5050505050815260200160038201548152505081526020019060010190610cd3565b50505050905090565b606060026003811115610ee457610ee36125f2565b5b600060149054906101000a900460ff166003811115610f0657610f056125f2565b5b14610f46576040517f08c379a0000000000000000000000000000000000000000000000000000000008152600401610f3d90612fb4565b60405180910390fd5b600060016002600081548110610f5f57610f5e612921565b5b90600052602060002001604051610f769190612a53565b9081526020016040518091039020600301549050600060016002600081548110610fa357610fa2612921565b5b90600052602060002001604051610fba9190612a53565b90815260200160405180910390206000018054610fd69061297f565b80601f01602080910402602001604051908101604052809291908181526020018280546110029061297f565b801561104f5780601f106110245761010080835404028352916020019161104f565b820191906000526020600020905b81548152906001019060200180831161103257829003601f168201915b505050505090506000600190505b6002805490508110156111ce576001600282815481106110805761107f612921565b5b906000526020600020016040516110979190612a53565b9081526020016040518091039020600301548310156111bb576001600282815481106110c6576110c5612921565b5b906000526020600020016040516110dd9190612a53565b908152602001604051809103902060030154925060016002828154811061110757611106612921565b5b9060005260206000200160405161111e9190612a53565b9081526020016040518091039020600001805461113a9061297f565b80601f01602080910402602001604051908101604052809291908181526020018280546111669061297f565b80156111b35780601f10611188576101008083540402835291602001916111b3565b820191906000526020600020905b81548152906001019060200180831161119657829003601f168201915b505050505091505b80806111c690612d2e565b91505061105d565b50809250505090565b600681815481106111e757600080fd5b9060005260206000200160009150905080546112029061297f565b80601f016020809104026020016040519081016040528092919081815260200182805461122e9061297f565b801561127b5780601f106112505761010080835404028352916020019161127b565b820191906000526020600020905b81548152906001019060200180831161125e57829003601f168201915b505050505081565b60095481565b6001818051602081018201805184825260208301602085012081835280955050505050506000915090508060000180546112c29061297f565b80601f01602080910402602001604051908101604052809291908181526020018280546112ee9061297f565b801561133b5780601f106113105761010080835404028352916020019161133b565b820191906000526020600020905b81548152906001019060200180831161131e57829003601f168201915b5050505050908060010180546113509061297f565b80601f016020809104026020016040519081016040528092919081815260200182805461137c9061297f565b80156113c95780601f1061139e576101008083540402835291602001916113c9565b820191906000526020600020905b8154815290600101906020018083116113ac57829003601f168201915b5050505050908060020180546113de9061297f565b80601f016020809104026020016040519081016040528092919081815260200182805461140a9061297f565b80156114575780601f1061142c57610100808354040283529160200191611457565b820191906000526020600020905b81548152906001019060200180831161143a57829003601f168201915b5050505050908060030154905084565b6000600381111561147b5761147a6125f2565b5b600060149054906101000a900460ff16600381111561149d5761149c6125f2565b5b146114dd576040517f08c379a00000000000000000000000000000000000000000000000000000000081526004016114d490612dc2565b60405180910390fd5b6040518060800160405280848152602001838152602001828152602001600081525060018460405161150f9190612e13565b908152602001604051809103902060008201518160000190816115329190612e96565b5060208201518160010190816115489190612e96565b50604082015181600201908161155e9190612e96565b50606082015181600301559050506002839080600181540180825580915050600190039060005260206000200160009091909190915090816115a09190612e96565b5060036001846040516115b39190612e13565b90815260200160405180910390209080600181540180825580915050600190039060005260206000209060040201600090919091909150600082018160000190816115fe9190612c17565b50600182018160010190816116139190612c17565b50600282018160020190816116289190612c17565b506003820154816003015550506008600081548092919061164890612d2e565b9190505550505050565b600060149054906101000a900460ff1681565b60606002805480602002602001604051908101604052809291908181526020016000905b828210156117355783829060005260206000200180546116a89061297f565b80601f01602080910402602001604051908101604052809291908181526020018280546116d49061297f565b80156117215780601f106116f657610100808354040283529160200191611721565b820191906000526020600020905b81548152906001019060200180831161170457829003601f168201915b505050505081526020019060010190611689565b50505050905090565b60016003811115611752576117516125f2565b5b600060149054906101000a900460ff166003811115611774576117736125f2565b5b146117b4576040517f08c379a00000000000000000000000000000000000000000000000000000000081526004016117ab90613046565b60405180910390fd5b600115156005836040516117c89190612e13565b908152602001604051809103902060020160009054906101000a900460ff16151514611829576040517f08c379a0000000000000000000000000000000000000000000000000000000008152600401611820906130b2565b60405180910390fd5b6000151560058360405161183d9190612e13565b908152602001604051809103902060020160019054906101000a900460ff1615151461189e576040517f08c379a00000000000000000000000000000000000000000000000000000000081526004016118959061311e565b60405180910390fd5b60016005836040516118b09190612e13565b908152602001604051809103902060020160016101000a81548160ff02191690831515021790555060076005836040516118ea9190612e13565b90815260200160405180910390209080600181540180825580915050600190039060005260206000209060030201600090919091909150600082018160000190816119359190612c17565b506001820181600101908161194a9190612c17565b506002820160009054906101000a900460ff168160020160006101000a81548160ff0219169083151502179055506002820160019054906101000a900460ff168160020160016101000a81548160ff0219169083151502179055505050806005836040516119b89190612e13565b908152602001604051809103902060010190816119d59190612e96565b506001816040516119e69190612e13565b90815260200160405180910390206003016000815480929190611a0890612d2e565b91905055505050565b600380811115611a2457611a236125f2565b5b600060149054906101000a900460ff166003811115611a4657611a456125f2565b5b14611a86576040517f08c379a0000000000000000000000000000000000000000000000000000000008152600401611a7d9061318a565b60405180910390fd5b6000600981905550600060088190555060026000611aa49190611d36565b60036000611ab29190611d57565b60046000611ac09190611d57565b60005b600680549050811015611b3a576000600560068381548110611ae857611ae7612921565b5b90600052602060002001604051611aff9190612a53565b908152602001604051809103902060020160006101000a81548160ff0219169083151502179055508080611b3290612d2e565b915050611ac3565b5060066000611b499190611d36565b60076000611b579190611d7b565b565b60008054906101000a900473ffffffffffffffffffffffffffffffffffffffff1681565b60606007805480602002602001604051908101604052809291908181526020016000905b82821015611d2d5783829060005260206000209060030201604051806080016040529081600082018054611bd49061297f565b80601f0160208091040260200160405190810160405280929190818152602001828054611c009061297f565b8015611c4d5780601f10611c2257610100808354040283529160200191611c4d565b820191906000526020600020905b815481529060010190602001808311611c3057829003601f168201915b50505050508152602001600182018054611c669061297f565b80601f0160208091040260200160405190810160405280929190818152602001828054611c929061297f565b8015611cdf5780601f10611cb457610100808354040283529160200191611cdf565b820191906000526020600020905b815481529060010190602001808311611cc257829003601f168201915b505050505081526020016002820160009054906101000a900460ff161515151581526020016002820160019054906101000a900460ff16151515158152505081526020019060010190611ba1565b50505050905090565b5080546000825590600052602060002090810190611d549190611d9f565b50565b5080546000825560040290600052602060002090810190611d789190611dc3565b50565b5080546000825560030290600052602060002090810190611d9c9190611e12565b50565b5b80821115611dbf5760008181611db69190611e71565b50600101611da0565b5090565b5b80821115611e0e5760008082016000611ddd9190611e71565b600182016000611ded9190611e71565b600282016000611dfd9190611e71565b600382016000905550600401611dc4565b5090565b5b80821115611e6d5760008082016000611e2c9190611e71565b600182016000611e3c9190611e71565b6002820160006101000a81549060ff02191690556002820160016101000a81549060ff021916905550600301611e13565b5090565b508054611e7d9061297f565b6000825580601f10611e8f5750611eae565b601f016020900490600052602060002090810190611ead9190611eb1565b5b50565b5b80821115611eca576000816000905550600101611eb2565b5090565b600081519050919050565b600082825260208201905092915050565b6000819050602082019050919050565b600081519050919050565b600082825260208201905092915050565b60005b83811015611f34578082015181840152602081019050611f19565b60008484015250505050565b6000601f19601f8301169050919050565b6000611f5c82611efa565b611f668185611f05565b9350611f76818560208601611f16565b611f7f81611f40565b840191505092915050565b6000611f968383611f51565b905092915050565b6000602082019050919050565b6000611fb682611ece565b611fc08185611ed9565b935083602082028501611fd285611eea565b8060005b8581101561200e5784840389528151611fef8582611f8a565b9450611ffa83611f9e565b925060208a01995050600181019050611fd6565b50829750879550505050505092915050565b6000602082019050818103600083015261203a8184611fab565b905092915050565b600081519050919050565b600082825260208201905092915050565b6000819050602082019050919050565b6000819050919050565b6120818161206e565b82525050565b600060808301600083015184820360008601526120a48282611f51565b915050602083015184820360208601526120be8282611f51565b915050604083015184820360408601526120d88282611f51565b91505060608301516120ed6060860182612078565b508091505092915050565b60006121048383612087565b905092915050565b6000602082019050919050565b600061212482612042565b61212e818561204d565b9350836020820285016121408561205e565b8060005b8581101561217c578484038952815161215d85826120f8565b94506121688361210c565b925060208a01995050600181019050612144565b50829750879550505050505092915050565b600060208201905081810360008301526121a88184612119565b905092915050565b6000604051905090565b600080fd5b600080fd5b600481106121d157600080fd5b50565b6000813590506121e3816121c4565b92915050565b6000602082840312156121ff576121fe6121ba565b5b600061220d848285016121d4565b91505092915050565b61221f8161206e565b82525050565b600060208201905061223a6000830184612216565b92915050565b600080fd5b600080fd5b7f4e487b7100000000000000000000000000000000000000000000000000000000600052604160045260246000fd5b61228282611f40565b810181811067ffffffffffffffff821117156122a1576122a061224a565b5b80604052505050565b60006122b46121b0565b90506122c08282612279565b919050565b600067ffffffffffffffff8211156122e0576122df61224a565b5b6122e982611f40565b9050602081019050919050565b82818337600083830152505050565b6000612318612313846122c5565b6122aa565b90508281526020810184848401111561233457612333612245565b5b61233f8482856122f6565b509392505050565b600082601f83011261235c5761235b612240565b5b813561236c848260208601612305565b91505092915050565b60006020828403121561238b5761238a6121ba565b5b600082013567ffffffffffffffff8111156123a9576123a86121bf565b5b6123b584828501612347565b91505092915050565b600082825260208201905092915050565b60006123da82611efa565b6123e481856123be565b93506123f4818560208601611f16565b6123fd81611f40565b840191505092915050565b60008115159050919050565b61241d81612408565b82525050565b6000608082019050818103600083015261243d81876123cf565b9050818103602083015261245181866123cf565b90506124606040830185612414565b61246d6060830184612414565b95945050505050565b61247f8161206e565b811461248a57600080fd5b50565b60008135905061249c81612476565b92915050565b6000602082840312156124b8576124b76121ba565b5b60006124c68482850161248d565b91505092915050565b600060208201905081810360008301526124e981846123cf565b905092915050565b6000608082019050818103600083015261250b81876123cf565b9050818103602083015261251f81866123cf565b9050818103604083015261253381856123cf565b90506125426060830184612216565b95945050505050565b600080600060608486031215612564576125636121ba565b5b600084013567ffffffffffffffff811115612582576125816121bf565b5b61258e86828701612347565b935050602084013567ffffffffffffffff8111156125af576125ae6121bf565b5b6125bb86828701612347565b925050604084013567ffffffffffffffff8111156125dc576125db6121bf565b5b6125e886828701612347565b9150509250925092565b7f4e487b7100000000000000000000000000000000000000000000000000000000600052602160045260246000fd5b60048110612632576126316125f2565b5b50565b600081905061264382612621565b919050565b600061265382612635565b9050919050565b61266381612648565b82525050565b600060208201905061267e600083018461265a565b92915050565b6000806040838503121561269b5761269a6121ba565b5b600083013567ffffffffffffffff8111156126b9576126b86121bf565b5b6126c585828601612347565b925050602083013567ffffffffffffffff8111156126e6576126e56121bf565b5b6126f285828601612347565b9150509250929050565b600073ffffffffffffffffffffffffffffffffffffffff82169050919050565b6000612727826126fc565b9050919050565b6127378161271c565b82525050565b6000602082019050612752600083018461272e565b92915050565b600081519050919050565b600082825260208201905092915050565b6000819050602082019050919050565b61278d81612408565b82525050565b600060808301600083015184820360008601526127b08282611f51565b915050602083015184820360208601526127ca8282611f51565b91505060408301516127df6040860182612784565b5060608301516127f26060860182612784565b508091505092915050565b60006128098383612793565b905092915050565b6000602082019050919050565b600061282982612758565b6128338185612763565b93508360208202850161284585612774565b8060005b85811015612881578484038952815161286285826127fd565b945061286d83612811565b925060208a01995050600181019050612849565b50829750879550505050505092915050565b600060208201905081810360008301526128ad818461281e565b905092915050565b7f526573756c74205068617365204973204e6f7420537461727465640000000000600082015250565b60006128eb601b836123be565b91506128f6826128b5565b602082019050919050565b6000602082019050818103600083015261291a816128de565b9050919050565b7f4e487b7100000000000000000000000000000000000000000000000000000000600052603260045260246000fd5b7f4e487b7100000000000000000000000000000000000000000000000000000000600052602260045260246000fd5b6000600282049050600182168061299757607f821691505b6020821081036129aa576129a9612950565b5b50919050565b600081905092915050565b60008190508160005260206000209050919050565b600081546129dd8161297f565b6129e781866129b0565b94506001821660008114612a025760018114612a1757612a4a565b60ff1983168652811515820286019350612a4a565b612a20856129bb565b60005b83811015612a4257815481890152600182019150602081019050612a23565b838801955050505b50505092915050565b6000612a5f82846129d0565b915081905092915050565b600081549050612a798161297f565b9050919050565b60006020601f8301049050919050565b600082821b905092915050565b600060088302612acd7fffffffffffffffffffffffffffffffffffffffffffffffffffffffffffffffff82612a90565b612ad78683612a90565b95508019841693508086168417925050509392505050565b6000819050919050565b6000612b14612b0f612b0a8461206e565b612aef565b61206e565b9050919050565b6000819050919050565b612b2e83612af9565b612b42612b3a82612b1b565b848454612a9d565b825550505050565b600090565b612b57612b4a565b612b62818484612b25565b505050565b5b81811015612b8657612b7b600082612b4f565b600181019050612b68565b5050565b601f821115612bcb57612b9c816129bb565b612ba584612a80565b81016020851015612bb4578190505b612bc8612bc085612a80565b830182612b67565b50505b505050565b600082821c905092915050565b6000612bee60001984600802612bd0565b1980831691505092915050565b6000612c078383612bdd565b9150826002028217905092915050565b818103612c25575050612cfd565b612c2e82612a6a565b67ffffffffffffffff811115612c4757612c4661224a565b5b612c51825461297f565b612c5c828285612b8a565b6000601f831160018114612c8b5760008415612c79578287015490505b612c838582612bfb565b865550612cf6565b601f198416612c99876129bb565b9650612ca4866129bb565b60005b82811015612ccc57848901548255600182019150600185019450602081019050612ca7565b86831015612ce95784890154612ce5601f891682612bdd565b8355505b6001600288020188555050505b5050505050505b565b7f4e487b7100000000000000000000000000000000000000000000000000000000600052601160045260246000fd5b6000612d398261206e565b91507fffffffffffffffffffffffffffffffffffffffffffffffffffffffffffffffff8203612d6b57612d6a612cff565b5b600182019050919050565b7f526567697374726174696f6e207068617365206973206f766572000000000000600082015250565b6000612dac601a836123be565b9150612db782612d76565b602082019050919050565b60006020820190508181036000830152612ddb81612d9f565b9050919050565b6000612ded82611efa565b612df781856129b0565b9350612e07818560208601611f16565b80840191505092915050565b6000612e1f8284612de2565b915081905092915050565b7f596f7520416c7265616479205265676973746572656400000000000000000000600082015250565b6000612e606016836123be565b9150612e6b82612e2a565b602082019050919050565b60006020820190508181036000830152612e8f81612e53565b9050919050565b612e9f82611efa565b67ffffffffffffffff811115612eb857612eb761224a565b5b612ec2825461297f565b612ecd828285612b8a565b600060209050601f831160018114612f005760008415612eee578287015190505b612ef88582612bfb565b865550612f60565b601f198416612f0e866129bb565b60005b82811015612f3657848901518255600182019150602085019450602081019050612f11565b86831015612f535784890151612f4f601f891682612bdd565b8355505b6001600288020188555050505b505050505050565b7f566f74696e67206973206e6f7420636f6d706c65746564207965740000000000600082015250565b6000612f9e601b836123be565b9150612fa982612f68565b602082019050919050565b60006020820190508181036000830152612fcd81612f91565b9050919050565b7f43757272656e746c7920456c656374696f6e206973206e6f742073746172746560008201527f64206f7220456c656374696f6e206973206f7665720000000000000000000000602082015250565b60006130306035836123be565b915061303b82612fd4565b604082019050919050565b6000602082019050818103600083015261305f81613023565b9050919050565b7f5265676973746572206669727374000000000000000000000000000000000000600082015250565b600061309c600e836123be565b91506130a782613066565b602082019050919050565b600060208201905081810360008301526130cb8161308f565b9050919050565b7f596f75206861766520616c726561647920766f74656400000000000000000000600082015250565b60006131086016836123be565b9150613113826130d2565b602082019050919050565b60006020820190508181036000830152613137816130fb565b9050919050565b7f456c656374696f6e206973206e6f74204f766572207965740000000000000000600082015250565b60006131746018836123be565b915061317f8261313e565b602082019050919050565b600060208201905081810360008301526131a381613167565b905091905056fea2646970667358221220c75007192e0ed04538d83bf0772e2a6d839828b6451b646d00f6a8a1df69953564736f6c63430008100033",
  "immutableReferences": {},
  "source": "// SPDX-License-Identifier: MIT\r\npragma solidity >=0.4.22 <0.9.0;\r\n\r\ncontract Election {\r\n    address public admin;\r\n\r\n    enum PHASE {\r\n        registration,\r\n        voting,\r\n        done,\r\n        reset\r\n    }\r\n\r\n    PHASE public ElectionPhase;\r\n\r\n    struct Party {\r\n        string party_id;\r\n        string partyName;\r\n        string partyImage;\r\n        uint256 partyVotes;\r\n    }\r\n\r\n    mapping(string => Party) public parties;\r\n    string[] public party_ids_list;\r\n    Party[] partyList;\r\n    Party[] resultPartiesList;\r\n\r\n    struct Voter {\r\n        string voter_id;\r\n        string votedParty_id;\r\n        bool is_registerd;\r\n        bool hasVoted;\r\n    }\r\n\r\n    mapping(string => Voter) public voters;\r\n    string[] public voter_ids_list;\r\n    Voter[] votersList;\r\n\r\n    uint256 public candidatesCount;\r\n    uint256 public votersCount;\r\n\r\n    constructor() {\r\n        admin = msg.sender;\r\n        ElectionPhase = PHASE.registration;\r\n    }\r\n\r\n    function changeState(PHASE x) public {\r\n        ElectionPhase = x;\r\n    }\r\n\r\n    function addCandidate(\r\n        string memory _id,\r\n        string memory _party,\r\n        string memory _image\r\n    ) public {\r\n        require(\r\n            ElectionPhase == PHASE.registration,\r\n            \"Registration phase is over\"\r\n        );\r\n        parties[_id] = Party(_id, _party, _image, 0);\r\n        party_ids_list.push(_id);\r\n        partyList.push(parties[_id]);\r\n        candidatesCount++;\r\n    }\r\n\r\n    function voterRegisteration(string memory _voter_id) public {\r\n        require(\r\n            ElectionPhase == PHASE.registration,\r\n            \"Registration phase is over\"\r\n        );\r\n        require(\r\n            voters[_voter_id].is_registerd == false,\r\n            \"You Already Registered\"\r\n        );\r\n        voters[_voter_id] = Voter(_voter_id, \"\", true, false);\r\n        voter_ids_list.push(_voter_id);\r\n        votersCount++;\r\n    }\r\n\r\n    function vote(string memory _id, string memory _votedCandidate_id) public {\r\n        require(\r\n            ElectionPhase == PHASE.voting,\r\n            \"Currently Election is not started or Election is over\"\r\n        );\r\n        require(voters[_id].is_registerd == true, \"Register first\");\r\n        require(voters[_id].hasVoted == false, \"You have already voted\");\r\n        voters[_id].hasVoted = true;\r\n        votersList.push(voters[_id]);\r\n        voters[_id].votedParty_id = _votedCandidate_id;\r\n        parties[_votedCandidate_id].partyVotes++;\r\n    }\r\n\r\n    function getWinner() public view returns (string memory) {\r\n        require(ElectionPhase == PHASE.done, \"Voting is not completed yet\");\r\n        uint256 maxVotes = parties[party_ids_list[0]].partyVotes;\r\n        string memory winner_id = parties[party_ids_list[0]].party_id;\r\n        for (uint256 i = 1; i < party_ids_list.length; i++) {\r\n            if (maxVotes < parties[party_ids_list[i]].partyVotes) {\r\n                maxVotes = parties[party_ids_list[i]].partyVotes;\r\n                winner_id = parties[party_ids_list[i]].party_id;\r\n            }\r\n        }\r\n        return winner_id;\r\n    }\r\n\r\n    function addCandidateToResultList() public {\r\n        require(ElectionPhase == PHASE.done, \"Result Phase Is Not Started\");\r\n        for (uint256 i = 0; i < party_ids_list.length; i++) {\r\n            resultPartiesList.push(parties[party_ids_list[i]]);\r\n        }\r\n    }\r\n\r\n    function getUpdatedCandidateList() public view returns (Party[] memory) {\r\n        require(ElectionPhase == PHASE.done, \"Result Phase Is Not Started\");\r\n        return resultPartiesList;\r\n    }\r\n\r\n    function allCandidates() public view returns (Party[] memory) {\r\n        return partyList;\r\n    }\r\n\r\n    function getCandidateIdList() public view returns (string[] memory) {\r\n        return party_ids_list;\r\n    }\r\n\r\n    function getVoterIdList() public view returns (string[] memory) {\r\n        return voter_ids_list;\r\n    }\r\n\r\n    function allVoters() public view returns (Voter[] memory) {\r\n        return votersList;\r\n    }\r\n\r\n    function resetElection() public {\r\n        require(ElectionPhase == PHASE.reset, \"Election is not Over yet\");\r\n\r\n        votersCount = 0;\r\n        candidatesCount = 0;\r\n        delete party_ids_list;\r\n        delete partyList;\r\n        delete resultPartiesList;\r\n\r\n        for (uint256 i = 0; i < voter_ids_list.length; i++) {\r\n            voters[voter_ids_list[i]].is_registerd = false;\r\n        }\r\n\r\n        delete voter_ids_list;\r\n        delete votersList;\r\n    }\r\n}\r\n",
  "sourcePath": "C:\\Harshit\\Projects\\PersonalProjects\\Blockchain\\ExitPollSystem\\contracts\\Election.sol",
  "compiler": {
    "name": "solc",
    "version": "0.8.16+commit.07a7930e.Emscripten.clang"
  },
  "schemaVersion": "3.4.9",
  "updatedAt": "2022-10-29T13:53:23.906Z",
  "devdoc": {
    "kind": "dev",
    "methods": {},
    "version": 1
  },
  "userdoc": {
    "kind": "user",
    "methods": {},
    "version": 1
  }
}