{
  "contractName": "Election",
  "abi": [
    {
      "inputs": [],
      "stateMutability": "nonpayable",
      "type": "constructor"
    },
    {
      "inputs": [],
      "name": "ElectionState",
      "outputs": [
        {
          "internalType": "enum Election.PHASE",
          "name": "",
          "type": "uint8"
        }
      ],
      "stateMutability": "view",
      "type": "function"
    },
    {
      "inputs": [],
      "name": "admin",
      "outputs": [
        {
          "internalType": "address",
          "name": "",
          "type": "address"
        }
      ],
      "stateMutability": "view",
      "type": "function"
    },
    {
      "inputs": [
        {
          "internalType": "uint256",
          "name": "",
          "type": "uint256"
        }
      ],
      "name": "candidate_ids_list",
      "outputs": [
        {
          "internalType": "string",
          "name": "",
          "type": "string"
        }
      ],
      "stateMutability": "view",
      "type": "function"
    },
    {
      "inputs": [
        {
          "internalType": "string",
          "name": "",
          "type": "string"
        }
      ],
      "name": "candidates",
      "outputs": [
        {
          "internalType": "string",
          "name": "candidate_id",
          "type": "string"
        },
        {
          "internalType": "string",
          "name": "candidate_name",
          "type": "string"
        },
        {
          "internalType": "string",
          "name": "candidate_partyName",
          "type": "string"
        },
        {
          "internalType": "string",
          "name": "candidate_imageName",
          "type": "string"
        },
        {
          "internalType": "uint256",
          "name": "candidate_age",
          "type": "uint256"
        },
        {
          "internalType": "uint256",
          "name": "candidate_totalVotes",
          "type": "uint256"
        },
        {
          "internalType": "bool",
          "name": "is_added",
          "type": "bool"
        }
      ],
      "stateMutability": "view",
      "type": "function"
    },
    {
      "inputs": [],
      "name": "candidatesCount",
      "outputs": [
        {
          "internalType": "uint256",
          "name": "",
          "type": "uint256"
        }
      ],
      "stateMutability": "view",
      "type": "function"
    },
    {
      "inputs": [
        {
          "internalType": "uint256",
          "name": "",
          "type": "uint256"
        }
      ],
      "name": "voter_ids_list",
      "outputs": [
        {
          "internalType": "string",
          "name": "",
          "type": "string"
        }
      ],
      "stateMutability": "view",
      "type": "function"
    },
    {
      "inputs": [
        {
          "internalType": "string",
          "name": "",
          "type": "string"
        }
      ],
      "name": "voters",
      "outputs": [
        {
          "internalType": "string",
          "name": "voter_id",
          "type": "string"
        },
        {
          "internalType": "string",
          "name": "votedCandidate_id",
          "type": "string"
        },
        {
          "internalType": "bool",
          "name": "is_registerd",
          "type": "bool"
        },
        {
          "internalType": "bool",
          "name": "hasVoted",
          "type": "bool"
        }
      ],
      "stateMutability": "view",
      "type": "function"
    },
    {
      "inputs": [],
      "name": "votersCount",
      "outputs": [
        {
          "internalType": "uint256",
          "name": "",
          "type": "uint256"
        }
      ],
      "stateMutability": "view",
      "type": "function"
    },
    {
      "inputs": [
        {
          "internalType": "enum Election.PHASE",
          "name": "x",
          "type": "uint8"
        }
      ],
      "name": "changeState",
      "outputs": [],
      "stateMutability": "nonpayable",
      "type": "function"
    },
    {
      "inputs": [
        {
          "internalType": "string",
          "name": "_id",
          "type": "string"
        },
        {
          "internalType": "string",
          "name": "_name",
          "type": "string"
        },
        {
          "internalType": "string",
          "name": "_party",
          "type": "string"
        },
        {
          "internalType": "string",
          "name": "_image",
          "type": "string"
        },
        {
          "internalType": "uint256",
          "name": "_age",
          "type": "uint256"
        }
      ],
      "name": "addCandidate",
      "outputs": [],
      "stateMutability": "nonpayable",
      "type": "function"
    },
    {
      "inputs": [
        {
          "internalType": "string",
          "name": "_voter_id",
          "type": "string"
        }
      ],
      "name": "voterRegisteration",
      "outputs": [],
      "stateMutability": "nonpayable",
      "type": "function"
    },
    {
      "inputs": [
        {
          "internalType": "string",
          "name": "_id",
          "type": "string"
        },
        {
          "internalType": "string",
          "name": "_votedCandidate_id",
          "type": "string"
        }
      ],
      "name": "vote",
      "outputs": [],
      "stateMutability": "nonpayable",
      "type": "function"
    },
    {
      "inputs": [],
      "name": "getWinner",
      "outputs": [
        {
          "internalType": "string",
          "name": "",
          "type": "string"
        }
      ],
      "stateMutability": "view",
      "type": "function"
    },
    {
      "inputs": [],
      "name": "addCandidateToResultList",
      "outputs": [],
      "stateMutability": "nonpayable",
      "type": "function"
    },
    {
      "inputs": [],
      "name": "getUpdatedCandidateList",
      "outputs": [
        {
          "components": [
            {
              "internalType": "string",
              "name": "candidate_id",
              "type": "string"
            },
            {
              "internalType": "string",
              "name": "candidate_name",
              "type": "string"
            },
            {
              "internalType": "string",
              "name": "candidate_partyName",
              "type": "string"
            },
            {
              "internalType": "string",
              "name": "candidate_imageName",
              "type": "string"
            },
            {
              "internalType": "uint256",
              "name": "candidate_age",
              "type": "uint256"
            },
            {
              "internalType": "uint256",
              "name": "candidate_totalVotes",
              "type": "uint256"
            },
            {
              "internalType": "bool",
              "name": "is_added",
              "type": "bool"
            }
          ],
          "internalType": "struct Election.Candidate[]",
          "name": "",
          "type": "tuple[]"
        }
      ],
      "stateMutability": "view",
      "type": "function"
    },
    {
      "inputs": [],
      "name": "allCandidates",
      "outputs": [
        {
          "components": [
            {
              "internalType": "string",
              "name": "candidate_id",
              "type": "string"
            },
            {
              "internalType": "string",
              "name": "candidate_name",
              "type": "string"
            },
            {
              "internalType": "string",
              "name": "candidate_partyName",
              "type": "string"
            },
            {
              "internalType": "string",
              "name": "candidate_imageName",
              "type": "string"
            },
            {
              "internalType": "uint256",
              "name": "candidate_age",
              "type": "uint256"
            },
            {
              "internalType": "uint256",
              "name": "candidate_totalVotes",
              "type": "uint256"
            },
            {
              "internalType": "bool",
              "name": "is_added",
              "type": "bool"
            }
          ],
          "internalType": "struct Election.Candidate[]",
          "name": "",
          "type": "tuple[]"
        }
      ],
      "stateMutability": "view",
      "type": "function"
    },
    {
      "inputs": [],
      "name": "getCandidateIdList",
      "outputs": [
        {
          "internalType": "string[]",
          "name": "",
          "type": "string[]"
        }
      ],
      "stateMutability": "view",
      "type": "function"
    },
    {
      "inputs": [],
      "name": "getVoterIdList",
      "outputs": [
        {
          "internalType": "string[]",
          "name": "",
          "type": "string[]"
        }
      ],
      "stateMutability": "view",
      "type": "function"
    },
    {
      "inputs": [],
      "name": "allVoters",
      "outputs": [
        {
          "components": [
            {
              "internalType": "string",
              "name": "voter_id",
              "type": "string"
            },
            {
              "internalType": "string",
              "name": "votedCandidate_id",
              "type": "string"
            },
            {
              "internalType": "bool",
              "name": "is_registerd",
              "type": "bool"
            },
            {
              "internalType": "bool",
              "name": "hasVoted",
              "type": "bool"
            }
          ],
          "internalType": "struct Election.Voter[]",
          "name": "",
          "type": "tuple[]"
        }
      ],
      "stateMutability": "view",
      "type": "function"
    },
    {
      "inputs": [],
      "name": "resetAll",
      "outputs": [],
      "stateMutability": "nonpayable",
      "type": "function"
    }
  ],
  "bytecode": "0x60806040523480156200001157600080fd5b50336000806101000a81548173ffffffffffffffffffffffffffffffffffffffff021916908373ffffffffffffffffffffffffffffffffffffffff16021790555060008060146101000a81548160ff021916908360038111156200007a576200007962000085565b5b0217905550620000b4565b7f4e487b7100000000000000000000000000000000000000000000000000000000600052602160045260246000fd5b6136b880620000c46000396000f3fe608060405234801561001057600080fd5b506004361061012c5760003560e01c806390b24c72116100ad578063d328821a11610071578063d328821a1461032a578063e103aef514610348578063e8d5940d14610352578063f851a4401461036e578063f9e7284f1461038c5761012c565b806390b24c721461025857806398c0793814610288578063a555d745146102a6578063ba3cde0b146102c4578063c5539cc2146102f45761012c565b806353fa2e64116100f457806353fa2e64146101b157806356581147146101e457806381c407151461020057806383e917cc1461021e5780638e7ea5b21461023a5761012c565b80630c09c5761461013157806311688f801461013b578063128eb08a14610159578063268f1153146101775780632d35a8a214610193575b600080fd5b6101396103aa565b005b610143610543565b6040516101509190612443565b60405180910390f35b61016161061c565b60405161016e919061260c565b60405180910390f35b610191600480360381019061018c9190612667565b610968565b005b61019b610995565b6040516101a891906126a3565b60405180910390f35b6101cb60048036038101906101c691906127f3565b61099b565b6040516101db9493929190612895565b60405180910390f35b6101fe60048036038101906101f991906127f3565b610b0b565b005b610208610d09565b604051610215919061260c565b60405180910390f35b61023860048036038101906102339190612914565b610fdf565b005b6102426112e2565b60405161024f91906129ff565b60405180910390f35b610272600480360381019061026d9190612a21565b6115eb565b60405161027f91906129ff565b60405180910390f35b610290611697565b60405161029d91906126a3565b60405180910390f35b6102ae61169d565b6040516102bb9190612ac5565b60405180910390f35b6102de60048036038101906102d99190612a21565b6116b0565b6040516102eb91906129ff565b60405180910390f35b61030e600480360381019061030991906127f3565b61175c565b6040516103219796959493929190612ae0565b60405180910390f35b6103326119e1565b60405161033f9190612443565b60405180910390f35b610350611aba565b005b61036c60048036038101906103679190612b6b565b611c7d565b005b610376611f50565b6040516103839190612c24565b60405180910390f35b610394611f74565b6040516103a19190612d6b565b60405180910390f35b600260038111156103be576103bd612a4e565b5b600060149054906101000a900460ff1660038111156103e0576103df612a4e565b5b14610420576040517f08c379a000000000000000000000000000000000000000000000000000000000815260040161041790612dd9565b60405180910390fd5b60005b60028054905081101561054057600460016002838154811061044857610447612df9565b5b9060005260206000200160405161045f9190612f2b565b90815260200160405180910390209080600181540180825580915050600190039060005260206000209060070201600090919091909150600082018160000190816104aa91906130ef565b50600182018160010190816104bf91906130ef565b50600282018160020190816104d491906130ef565b50600382018160030190816104e991906130ef565b5060048201548160040155600582015481600501556006820160009054906101000a900460ff168160060160006101000a81548160ff0219169083151502179055505050808061053890613206565b915050610423565b50565b60606006805480602002602001604051908101604052809291908181526020016000905b8282101561061357838290600052602060002001805461058690612e57565b80601f01602080910402602001604051908101604052809291908181526020018280546105b290612e57565b80156105ff5780601f106105d4576101008083540402835291602001916105ff565b820191906000526020600020905b8154815290600101906020018083116105e257829003601f168201915b505050505081526020019060010190610567565b50505050905090565b60606002600381111561063257610631612a4e565b5b600060149054906101000a900460ff16600381111561065457610653612a4e565b5b14610694576040517f08c379a000000000000000000000000000000000000000000000000000000000815260040161068b90612dd9565b60405180910390fd5b6004805480602002602001604051908101604052809291908181526020016000905b8282101561095f57838290600052602060002090600702016040518060e00160405290816000820180546106e990612e57565b80601f016020809104026020016040519081016040528092919081815260200182805461071590612e57565b80156107625780601f1061073757610100808354040283529160200191610762565b820191906000526020600020905b81548152906001019060200180831161074557829003601f168201915b5050505050815260200160018201805461077b90612e57565b80601f01602080910402602001604051908101604052809291908181526020018280546107a790612e57565b80156107f45780601f106107c9576101008083540402835291602001916107f4565b820191906000526020600020905b8154815290600101906020018083116107d757829003601f168201915b5050505050815260200160028201805461080d90612e57565b80601f016020809104026020016040519081016040528092919081815260200182805461083990612e57565b80156108865780601f1061085b57610100808354040283529160200191610886565b820191906000526020600020905b81548152906001019060200180831161086957829003601f168201915b5050505050815260200160038201805461089f90612e57565b80601f01602080910402602001604051908101604052809291908181526020018280546108cb90612e57565b80156109185780601f106108ed57610100808354040283529160200191610918565b820191906000526020600020905b8154815290600101906020018083116108fb57829003601f168201915b5050505050815260200160048201548152602001600582015481526020016006820160009054906101000a900460ff161515151581525050815260200190600101906106b6565b50505050905090565b80600060146101000a81548160ff0219169083600381111561098d5761098c612a4e565b5b021790555050565b60085481565b6005818051602081018201805184825260208301602085012081835280955050505050506000915090508060000180546109d490612e57565b80601f0160208091040260200160405190810160405280929190818152602001828054610a0090612e57565b8015610a4d5780601f10610a2257610100808354040283529160200191610a4d565b820191906000526020600020905b815481529060010190602001808311610a3057829003601f168201915b505050505090806001018054610a6290612e57565b80601f0160208091040260200160405190810160405280929190818152602001828054610a8e90612e57565b8015610adb5780601f10610ab057610100808354040283529160200191610adb565b820191906000526020600020905b815481529060010190602001808311610abe57829003601f168201915b5050505050908060020160009054906101000a900460ff16908060020160019054906101000a900460ff16905084565b60006003811115610b1f57610b1e612a4e565b5b600060149054906101000a900460ff166003811115610b4157610b40612a4e565b5b14610b81576040517f08c379a0000000000000000000000000000000000000000000000000000000008152600401610b789061329a565b60405180910390fd5b60001515600582604051610b9591906132eb565b908152602001604051809103902060020160009054906101000a900460ff16151514610bf6576040517f08c379a0000000000000000000000000000000000000000000000000000000008152600401610bed9061334e565b60405180910390fd5b604051806080016040528082815260200160405180602001604052806000815250815260200160011515815260200160001515815250600582604051610c3c91906132eb565b90815260200160405180910390206000820151816000019081610c5f919061336e565b506020820151816001019081610c75919061336e565b5060408201518160020160006101000a81548160ff02191690831515021790555060608201518160020160016101000a81548160ff021916908315150217905550905050600681908060018154018082558091505060019003906000526020600020016000909190919091509081610ced919061336e565b5060096000815480929190610d0190613206565b919050555050565b60606003805480602002602001604051908101604052809291908181526020016000905b82821015610fd657838290600052602060002090600702016040518060e0016040529081600082018054610d6090612e57565b80601f0160208091040260200160405190810160405280929190818152602001828054610d8c90612e57565b8015610dd95780601f10610dae57610100808354040283529160200191610dd9565b820191906000526020600020905b815481529060010190602001808311610dbc57829003601f168201915b50505050508152602001600182018054610df290612e57565b80601f0160208091040260200160405190810160405280929190818152602001828054610e1e90612e57565b8015610e6b5780601f10610e4057610100808354040283529160200191610e6b565b820191906000526020600020905b815481529060010190602001808311610e4e57829003601f168201915b50505050508152602001600282018054610e8490612e57565b80601f0160208091040260200160405190810160405280929190818152602001828054610eb090612e57565b8015610efd5780601f10610ed257610100808354040283529160200191610efd565b820191906000526020600020905b815481529060010190602001808311610ee057829003601f168201915b50505050508152602001600382018054610f1690612e57565b80601f0160208091040260200160405190810160405280929190818152602001828054610f4290612e57565b8015610f8f5780601f10610f6457610100808354040283529160200191610f8f565b820191906000526020600020905b815481529060010190602001808311610f7257829003601f168201915b5050505050815260200160048201548152602001600582015481526020016006820160009054906101000a900460ff16151515158152505081526020019060010190610d2d565b50505050905090565b60006003811115610ff357610ff2612a4e565b5b600060149054906101000a900460ff16600381111561101557611014612a4e565b5b14611055576040517f08c379a000000000000000000000000000000000000000000000000000000000815260040161104c9061329a565b60405180910390fd5b6000151560018660405161106991906132eb565b908152602001604051809103902060060160009054906101000a900460ff161515146110ca576040517f08c379a00000000000000000000000000000000000000000000000000000000081526004016110c19061334e565b60405180910390fd5b6040518060e00160405280868152602001858152602001848152602001838152602001828152602001600081526020016001151581525060018660405161111191906132eb565b90815260200160405180910390206000820151816000019081611134919061336e565b50602082015181600101908161114a919061336e565b506040820151816002019081611160919061336e565b506060820151816003019081611176919061336e565b506080820151816004015560a0820151816005015560c08201518160060160006101000a81548160ff0219169083151502179055509050506002859080600181540180825580915050600190039060005260206000200160009091909190915090816111e2919061336e565b5060036001866040516111f591906132eb565b908152602001604051809103902090806001815401808255809150506001900390600052602060002090600702016000909190919091506000820181600001908161124091906130ef565b506001820181600101908161125591906130ef565b506002820181600201908161126a91906130ef565b506003820181600301908161127f91906130ef565b5060048201548160040155600582015481600501556006820160009054906101000a900460ff168160060160006101000a81548160ff0219169083151502179055505050600860008154809291906112d690613206565b91905055505050505050565b6060600260038111156112f8576112f7612a4e565b5b600060149054906101000a900460ff16600381111561131a57611319612a4e565b5b1461135a576040517f08c379a00000000000000000000000000000000000000000000000000000000081526004016113519061348c565b60405180910390fd5b60006001600260008154811061137357611372612df9565b5b9060005260206000200160405161138a9190612f2b565b90815260200160405180910390206005015490506000600160026000815481106113b7576113b6612df9565b5b906000526020600020016040516113ce9190612f2b565b908152602001604051809103902060000180546113ea90612e57565b80601f016020809104026020016040519081016040528092919081815260200182805461141690612e57565b80156114635780601f1061143857610100808354040283529160200191611463565b820191906000526020600020905b81548152906001019060200180831161144657829003601f168201915b505050505090506000600190505b6002805490508110156115e25760016002828154811061149457611493612df9565b5b906000526020600020016040516114ab9190612f2b565b9081526020016040518091039020600501548310156115cf576001600282815481106114da576114d9612df9565b5b906000526020600020016040516114f19190612f2b565b908152602001604051809103902060050154925060016002828154811061151b5761151a612df9565b5b906000526020600020016040516115329190612f2b565b9081526020016040518091039020600001805461154e90612e57565b80601f016020809104026020016040519081016040528092919081815260200182805461157a90612e57565b80156115c75780601f1061159c576101008083540402835291602001916115c7565b820191906000526020600020905b8154815290600101906020018083116115aa57829003601f168201915b505050505091505b80806115da90613206565b915050611471565b50809250505090565b600681815481106115fb57600080fd5b90600052602060002001600091509050805461161690612e57565b80601f016020809104026020016040519081016040528092919081815260200182805461164290612e57565b801561168f5780601f106116645761010080835404028352916020019161168f565b820191906000526020600020905b81548152906001019060200180831161167257829003601f168201915b505050505081565b60095481565b600060149054906101000a900460ff1681565b600281815481106116c057600080fd5b9060005260206000200160009150905080546116db90612e57565b80601f016020809104026020016040519081016040528092919081815260200182805461170790612e57565b80156117545780601f1061172957610100808354040283529160200191611754565b820191906000526020600020905b81548152906001019060200180831161173757829003601f168201915b505050505081565b60018180516020810182018051848252602083016020850120818352809550505050505060009150905080600001805461179590612e57565b80601f01602080910402602001604051908101604052809291908181526020018280546117c190612e57565b801561180e5780601f106117e35761010080835404028352916020019161180e565b820191906000526020600020905b8154815290600101906020018083116117f157829003601f168201915b50505050509080600101805461182390612e57565b80601f016020809104026020016040519081016040528092919081815260200182805461184f90612e57565b801561189c5780601f106118715761010080835404028352916020019161189c565b820191906000526020600020905b81548152906001019060200180831161187f57829003601f168201915b5050505050908060020180546118b190612e57565b80601f01602080910402602001604051908101604052809291908181526020018280546118dd90612e57565b801561192a5780601f106118ff5761010080835404028352916020019161192a565b820191906000526020600020905b81548152906001019060200180831161190d57829003601f168201915b50505050509080600301805461193f90612e57565b80601f016020809104026020016040519081016040528092919081815260200182805461196b90612e57565b80156119b85780601f1061198d576101008083540402835291602001916119b8565b820191906000526020600020905b81548152906001019060200180831161199b57829003601f168201915b5050505050908060040154908060050154908060060160009054906101000a900460ff16905087565b60606002805480602002602001604051908101604052809291908181526020016000905b82821015611ab1578382906000526020600020018054611a2490612e57565b80601f0160208091040260200160405190810160405280929190818152602001828054611a5090612e57565b8015611a9d5780601f10611a7257610100808354040283529160200191611a9d565b820191906000526020600020905b815481529060010190602001808311611a8057829003601f168201915b505050505081526020019060010190611a05565b50505050905090565b600380811115611acd57611acc612a4e565b5b600060149054906101000a900460ff166003811115611aef57611aee612a4e565b5b14611b2f576040517f08c379a0000000000000000000000000000000000000000000000000000000008152600401611b26906134f8565b60405180910390fd5b6000600981905550600060088190555060005b600280549050811015611bb9576000600160028381548110611b6757611b66612df9565b5b90600052602060002001604051611b7e9190612f2b565b908152602001604051809103902060060160006101000a81548160ff0219169083151502179055508080611bb190613206565b915050611b42565b5060026000611bc8919061212d565b60036000611bd6919061214e565b60046000611be4919061214e565b60005b600680549050811015611c5e576000600560068381548110611c0c57611c0b612df9565b5b90600052602060002001604051611c239190612f2b565b908152602001604051809103902060020160006101000a81548160ff0219169083151502179055508080611c5690613206565b915050611be7565b5060066000611c6d919061212d565b60076000611c7b9190612172565b565b60016003811115611c9157611c90612a4e565b5b600060149054906101000a900460ff166003811115611cb357611cb2612a4e565b5b14611cf3576040517f08c379a0000000000000000000000000000000000000000000000000000000008152600401611cea9061358a565b60405180910390fd5b60011515600583604051611d0791906132eb565b908152602001604051809103902060020160009054906101000a900460ff16151514611d68576040517f08c379a0000000000000000000000000000000000000000000000000000000008152600401611d5f906135f6565b60405180910390fd5b60001515600583604051611d7c91906132eb565b908152602001604051809103902060020160019054906101000a900460ff16151514611ddd576040517f08c379a0000000000000000000000000000000000000000000000000000000008152600401611dd490613662565b60405180910390fd5b6001600583604051611def91906132eb565b908152602001604051809103902060020160016101000a81548160ff0219169083151502179055506007600583604051611e2991906132eb565b9081526020016040518091039020908060018154018082558091505060019003906000526020600020906003020160009091909190915060008201816000019081611e7491906130ef565b5060018201816001019081611e8991906130ef565b506002820160009054906101000a900460ff168160020160006101000a81548160ff0219169083151502179055506002820160019054906101000a900460ff168160020160016101000a81548160ff021916908315150217905550505080600583604051611ef791906132eb565b90815260200160405180910390206001019081611f14919061336e565b50600181604051611f2591906132eb565b90815260200160405180910390206005016000815480929190611f4790613206565b91905055505050565b60008054906101000a900473ffffffffffffffffffffffffffffffffffffffff1681565b60606007805480602002602001604051908101604052809291908181526020016000905b828210156121245783829060005260206000209060030201604051806080016040529081600082018054611fcb90612e57565b80601f0160208091040260200160405190810160405280929190818152602001828054611ff790612e57565b80156120445780601f1061201957610100808354040283529160200191612044565b820191906000526020600020905b81548152906001019060200180831161202757829003601f168201915b5050505050815260200160018201805461205d90612e57565b80601f016020809104026020016040519081016040528092919081815260200182805461208990612e57565b80156120d65780601f106120ab576101008083540402835291602001916120d6565b820191906000526020600020905b8154815290600101906020018083116120b957829003601f168201915b505050505081526020016002820160009054906101000a900460ff161515151581526020016002820160019054906101000a900460ff16151515158152505081526020019060010190611f98565b50505050905090565b508054600082559060005260206000209081019061214b9190612196565b50565b508054600082556007029060005260206000209081019061216f91906121ba565b50565b50805460008255600302906000526020600020908101906121939190612235565b50565b5b808211156121b657600081816121ad9190612294565b50600101612197565b5090565b5b8082111561223157600080820160006121d49190612294565b6001820160006121e49190612294565b6002820160006121f49190612294565b6003820160006122049190612294565b600482016000905560058201600090556006820160006101000a81549060ff0219169055506007016121bb565b5090565b5b80821115612290576000808201600061224f9190612294565b60018201600061225f9190612294565b6002820160006101000a81549060ff02191690556002820160016101000a81549060ff021916905550600301612236565b5090565b5080546122a090612e57565b6000825580601f106122b257506122d1565b601f0160209004906000526020600020908101906122d091906122d4565b5b50565b5b808211156122ed5760008160009055506001016122d5565b5090565b600081519050919050565b600082825260208201905092915050565b6000819050602082019050919050565b600081519050919050565b600082825260208201905092915050565b60005b8381101561235757808201518184015260208101905061233c565b60008484015250505050565b6000601f19601f8301169050919050565b600061237f8261231d565b6123898185612328565b9350612399818560208601612339565b6123a281612363565b840191505092915050565b60006123b98383612374565b905092915050565b6000602082019050919050565b60006123d9826122f1565b6123e381856122fc565b9350836020820285016123f58561230d565b8060005b85811015612431578484038952815161241285826123ad565b945061241d836123c1565b925060208a019950506001810190506123f9565b50829750879550505050505092915050565b6000602082019050818103600083015261245d81846123ce565b905092915050565b600081519050919050565b600082825260208201905092915050565b6000819050602082019050919050565b6000819050919050565b6124a481612491565b82525050565b60008115159050919050565b6124bf816124aa565b82525050565b600060e08301600083015184820360008601526124e28282612374565b915050602083015184820360208601526124fc8282612374565b915050604083015184820360408601526125168282612374565b915050606083015184820360608601526125308282612374565b9150506080830151612545608086018261249b565b5060a083015161255860a086018261249b565b5060c083015161256b60c08601826124b6565b508091505092915050565b600061258283836124c5565b905092915050565b6000602082019050919050565b60006125a282612465565b6125ac8185612470565b9350836020820285016125be85612481565b8060005b858110156125fa57848403895281516125db8582612576565b94506125e68361258a565b925060208a019950506001810190506125c2565b50829750879550505050505092915050565b600060208201905081810360008301526126268184612597565b905092915050565b6000604051905090565b600080fd5b600080fd5b6004811061264f57600080fd5b50565b60008135905061266181612642565b92915050565b60006020828403121561267d5761267c612638565b5b600061268b84828501612652565b91505092915050565b61269d81612491565b82525050565b60006020820190506126b86000830184612694565b92915050565b600080fd5b600080fd5b7f4e487b7100000000000000000000000000000000000000000000000000000000600052604160045260246000fd5b61270082612363565b810181811067ffffffffffffffff8211171561271f5761271e6126c8565b5b80604052505050565b600061273261262e565b905061273e82826126f7565b919050565b600067ffffffffffffffff82111561275e5761275d6126c8565b5b61276782612363565b9050602081019050919050565b82818337600083830152505050565b600061279661279184612743565b612728565b9050828152602081018484840111156127b2576127b16126c3565b5b6127bd848285612774565b509392505050565b600082601f8301126127da576127d96126be565b5b81356127ea848260208601612783565b91505092915050565b60006020828403121561280957612808612638565b5b600082013567ffffffffffffffff8111156128275761282661263d565b5b612833848285016127c5565b91505092915050565b600082825260208201905092915050565b60006128588261231d565b612862818561283c565b9350612872818560208601612339565b61287b81612363565b840191505092915050565b61288f816124aa565b82525050565b600060808201905081810360008301526128af818761284d565b905081810360208301526128c3818661284d565b90506128d26040830185612886565b6128df6060830184612886565b95945050505050565b6128f181612491565b81146128fc57600080fd5b50565b60008135905061290e816128e8565b92915050565b600080600080600060a086880312156129305761292f612638565b5b600086013567ffffffffffffffff81111561294e5761294d61263d565b5b61295a888289016127c5565b955050602086013567ffffffffffffffff81111561297b5761297a61263d565b5b612987888289016127c5565b945050604086013567ffffffffffffffff8111156129a8576129a761263d565b5b6129b4888289016127c5565b935050606086013567ffffffffffffffff8111156129d5576129d461263d565b5b6129e1888289016127c5565b92505060806129f2888289016128ff565b9150509295509295909350565b60006020820190508181036000830152612a19818461284d565b905092915050565b600060208284031215612a3757612a36612638565b5b6000612a45848285016128ff565b91505092915050565b7f4e487b7100000000000000000000000000000000000000000000000000000000600052602160045260246000fd5b60048110612a8e57612a8d612a4e565b5b50565b6000819050612a9f82612a7d565b919050565b6000612aaf82612a91565b9050919050565b612abf81612aa4565b82525050565b6000602082019050612ada6000830184612ab6565b92915050565b600060e0820190508181036000830152612afa818a61284d565b90508181036020830152612b0e818961284d565b90508181036040830152612b22818861284d565b90508181036060830152612b36818761284d565b9050612b456080830186612694565b612b5260a0830185612694565b612b5f60c0830184612886565b98975050505050505050565b60008060408385031215612b8257612b81612638565b5b600083013567ffffffffffffffff811115612ba057612b9f61263d565b5b612bac858286016127c5565b925050602083013567ffffffffffffffff811115612bcd57612bcc61263d565b5b612bd9858286016127c5565b9150509250929050565b600073ffffffffffffffffffffffffffffffffffffffff82169050919050565b6000612c0e82612be3565b9050919050565b612c1e81612c03565b82525050565b6000602082019050612c396000830184612c15565b92915050565b600081519050919050565b600082825260208201905092915050565b6000819050602082019050919050565b60006080830160008301518482036000860152612c888282612374565b91505060208301518482036020860152612ca28282612374565b9150506040830151612cb760408601826124b6565b506060830151612cca60608601826124b6565b508091505092915050565b6000612ce18383612c6b565b905092915050565b6000602082019050919050565b6000612d0182612c3f565b612d0b8185612c4a565b935083602082028501612d1d85612c5b565b8060005b85811015612d595784840389528151612d3a8582612cd5565b9450612d4583612ce9565b925060208a01995050600181019050612d21565b50829750879550505050505092915050565b60006020820190508181036000830152612d858184612cf6565b905092915050565b7f526573756c74205068617365204973204e6f7420537461727465640000000000600082015250565b6000612dc3601b8361283c565b9150612dce82612d8d565b602082019050919050565b60006020820190508181036000830152612df281612db6565b9050919050565b7f4e487b7100000000000000000000000000000000000000000000000000000000600052603260045260246000fd5b7f4e487b7100000000000000000000000000000000000000000000000000000000600052602260045260246000fd5b60006002820490506001821680612e6f57607f821691505b602082108103612e8257612e81612e28565b5b50919050565b600081905092915050565b60008190508160005260206000209050919050565b60008154612eb581612e57565b612ebf8186612e88565b94506001821660008114612eda5760018114612eef57612f22565b60ff1983168652811515820286019350612f22565b612ef885612e93565b60005b83811015612f1a57815481890152600182019150602081019050612efb565b838801955050505b50505092915050565b6000612f378284612ea8565b915081905092915050565b600081549050612f5181612e57565b9050919050565b60006020601f8301049050919050565b600082821b905092915050565b600060088302612fa57fffffffffffffffffffffffffffffffffffffffffffffffffffffffffffffffff82612f68565b612faf8683612f68565b95508019841693508086168417925050509392505050565b6000819050919050565b6000612fec612fe7612fe284612491565b612fc7565b612491565b9050919050565b6000819050919050565b61300683612fd1565b61301a61301282612ff3565b848454612f75565b825550505050565b600090565b61302f613022565b61303a818484612ffd565b505050565b5b8181101561305e57613053600082613027565b600181019050613040565b5050565b601f8211156130a35761307481612e93565b61307d84612f58565b8101602085101561308c578190505b6130a061309885612f58565b83018261303f565b50505b505050565b600082821c905092915050565b60006130c6600019846008026130a8565b1980831691505092915050565b60006130df83836130b5565b9150826002028217905092915050565b8181036130fd5750506131d5565b61310682612f42565b67ffffffffffffffff81111561311f5761311e6126c8565b5b6131298254612e57565b613134828285613062565b6000601f8311600181146131635760008415613151578287015490505b61315b85826130d3565b8655506131ce565b601f19841661317187612e93565b965061317c86612e93565b60005b828110156131a45784890154825560018201915060018501945060208101905061317f565b868310156131c157848901546131bd601f8916826130b5565b8355505b6001600288020188555050505b5050505050505b565b7f4e487b7100000000000000000000000000000000000000000000000000000000600052601160045260246000fd5b600061321182612491565b91507fffffffffffffffffffffffffffffffffffffffffffffffffffffffffffffffff8203613243576132426131d7565b5b600182019050919050565b7f526567697374726174696f6e207068617365206973206f766572000000000000600082015250565b6000613284601a8361283c565b915061328f8261324e565b602082019050919050565b600060208201905081810360008301526132b381613277565b9050919050565b60006132c58261231d565b6132cf8185612e88565b93506132df818560208601612339565b80840191505092915050565b60006132f782846132ba565b915081905092915050565b7f596f7520416c7265616479205265676973746572656400000000000000000000600082015250565b600061333860168361283c565b915061334382613302565b602082019050919050565b600060208201905081810360008301526133678161332b565b9050919050565b6133778261231d565b67ffffffffffffffff8111156133905761338f6126c8565b5b61339a8254612e57565b6133a5828285613062565b600060209050601f8311600181146133d857600084156133c6578287015190505b6133d085826130d3565b865550613438565b601f1984166133e686612e93565b60005b8281101561340e578489015182556001820191506020850194506020810190506133e9565b8683101561342b5784890151613427601f8916826130b5565b8355505b6001600288020188555050505b505050505050565b7f566f74696e67206973206e6f7420636f6d706c65746564207965740000000000600082015250565b6000613476601b8361283c565b915061348182613440565b602082019050919050565b600060208201905081810360008301526134a581613469565b9050919050565b7f456c656374696f6e206973206e6f74204f766572207965740000000000000000600082015250565b60006134e260188361283c565b91506134ed826134ac565b602082019050919050565b60006020820190508181036000830152613511816134d5565b9050919050565b7f43757272656e746c7920456c656374696f6e206973206e6f742073746172746560008201527f64206f7220456c656374696f6e206973206f7665720000000000000000000000602082015250565b600061357460358361283c565b915061357f82613518565b604082019050919050565b600060208201905081810360008301526135a381613567565b9050919050565b7f5265676973746572206669727374000000000000000000000000000000000000600082015250565b60006135e0600e8361283c565b91506135eb826135aa565b602082019050919050565b6000602082019050818103600083015261360f816135d3565b9050919050565b7f596f75206861766520616c726561647920766f74656400000000000000000000600082015250565b600061364c60168361283c565b915061365782613616565b602082019050919050565b6000602082019050818103600083015261367b8161363f565b905091905056fea264697066735822122021d6c54c8701fb6eee8bbce58f83bd3a7ebe2779363707b08ada9760f3d2bdab64736f6c63430008100033",
  "immutableReferences": {},
  "source": "// SPDX-License-Identifier: MIT\r\npragma solidity >=0.4.22 <0.9.0;\r\n\r\ncontract Election {\r\n    address public admin;\r\n\r\n    enum PHASE {\r\n        registration,\r\n        voting,\r\n        done,\r\n        reset\r\n    }\r\n    PHASE public ElectionState;\r\n\r\n    struct Candidate {\r\n        string candidate_id;\r\n        string candidate_name;\r\n        string candidate_partyName;\r\n        string candidate_imageName;\r\n        uint256 candidate_age;\r\n        uint256 candidate_totalVotes;\r\n        bool is_added;\r\n    }\r\n\r\n    mapping(string => Candidate) public candidates;\r\n    string[] public candidate_ids_list;\r\n    Candidate[] candidatesList;\r\n    Candidate[] resultCandidatesList;\r\n\r\n    struct Voter {\r\n        string voter_id;\r\n        string votedCandidate_id;\r\n        bool is_registerd;\r\n        bool hasVoted;\r\n    }\r\n\r\n    mapping(string => Voter) public voters;\r\n    string[] public voter_ids_list;\r\n    Voter[] votersList;\r\n\r\n    uint256 public candidatesCount;\r\n    uint256 public votersCount;\r\n\r\n    constructor() {\r\n        admin = msg.sender;\r\n        ElectionState = PHASE.registration;\r\n    }\r\n\r\n    function changeState(PHASE x) public {\r\n        ElectionState = x;\r\n    }\r\n\r\n    function addCandidate(\r\n        string memory _id,\r\n        string memory _name,\r\n        string memory _party,\r\n        string memory _image,\r\n        uint256 _age\r\n    ) public {\r\n        require(\r\n            ElectionState == PHASE.registration,\r\n            \"Registration phase is over\"\r\n        );\r\n        require(candidates[_id].is_added == false, \"You Already Registered\");\r\n        candidates[_id] = Candidate(_id, _name, _party, _image, _age, 0, true);\r\n        candidate_ids_list.push(_id);\r\n        candidatesList.push(candidates[_id]);\r\n        candidatesCount++;\r\n    }\r\n\r\n    function voterRegisteration(string memory _voter_id) public {\r\n        require(\r\n            ElectionState == PHASE.registration,\r\n            \"Registration phase is over\"\r\n        );\r\n        require(\r\n            voters[_voter_id].is_registerd == false,\r\n            \"You Already Registered\"\r\n        );\r\n        voters[_voter_id] = Voter(_voter_id, \"\", true, false);\r\n        voter_ids_list.push(_voter_id);\r\n        votersCount++;\r\n    }\r\n\r\n    function vote(string memory _id, string memory _votedCandidate_id) public {\r\n        require(\r\n            ElectionState == PHASE.voting,\r\n            \"Currently Election is not started or Election is over\"\r\n        );\r\n        require(voters[_id].is_registerd == true, \"Register first\");\r\n        require(voters[_id].hasVoted == false, \"You have already voted\");\r\n        voters[_id].hasVoted = true;\r\n        votersList.push(voters[_id]);\r\n        voters[_id].votedCandidate_id = _votedCandidate_id;\r\n        candidates[_votedCandidate_id].candidate_totalVotes++;\r\n    }\r\n\r\n    function getWinner() public view returns (string memory) {\r\n        require(ElectionState == PHASE.done, \"Voting is not completed yet\");\r\n        uint256 maxVotes = candidates[candidate_ids_list[0]]\r\n            .candidate_totalVotes;\r\n        string memory winner_id = candidates[candidate_ids_list[0]]\r\n            .candidate_id;\r\n        for (uint256 i = 1; i < candidate_ids_list.length; i++) {\r\n            if (\r\n                maxVotes <\r\n                candidates[candidate_ids_list[i]].candidate_totalVotes\r\n            ) {\r\n                maxVotes = candidates[candidate_ids_list[i]]\r\n                    .candidate_totalVotes;\r\n                winner_id = candidates[candidate_ids_list[i]].candidate_id;\r\n            }\r\n        }\r\n        return winner_id;\r\n    }\r\n\r\n    function addCandidateToResultList() public {\r\n        require(ElectionState == PHASE.done, \"Result Phase Is Not Started\");\r\n        for (uint256 i = 0; i < candidate_ids_list.length; i++) {\r\n            resultCandidatesList.push(candidates[candidate_ids_list[i]]);\r\n        }\r\n    }\r\n\r\n    function getUpdatedCandidateList()\r\n        public\r\n        view\r\n        returns (Candidate[] memory)\r\n    {\r\n        require(ElectionState == PHASE.done, \"Result Phase Is Not Started\");\r\n        return resultCandidatesList;\r\n    }\r\n\r\n    function allCandidates() public view returns (Candidate[] memory) {\r\n        return candidatesList;\r\n    }\r\n\r\n    function getCandidateIdList() public view returns (string[] memory) {\r\n        return candidate_ids_list;\r\n    }\r\n\r\n    function getVoterIdList() public view returns (string[] memory) {\r\n        return voter_ids_list;\r\n    }\r\n\r\n    function allVoters() public view returns (Voter[] memory) {\r\n        return votersList;\r\n    }\r\n\r\n    function resetAll() public {\r\n        require(ElectionState == PHASE.reset, \"Election is not Over yet\");\r\n\r\n        votersCount = 0;\r\n        candidatesCount = 0;\r\n\r\n        for (uint256 i = 0; i < candidate_ids_list.length; i++) {\r\n            candidates[candidate_ids_list[i]].is_added = false;\r\n        }\r\n\r\n        delete candidate_ids_list;\r\n        delete candidatesList;\r\n        delete resultCandidatesList;\r\n\r\n        for (uint256 i = 0; i < voter_ids_list.length; i++) {\r\n            voters[voter_ids_list[i]].is_registerd = false;\r\n        }\r\n\r\n        delete voter_ids_list;\r\n        delete votersList;\r\n    }\r\n}\r\n",
  "sourcePath": "C:\\Harshit\\Projects\\PersonalProjects\\Blockchain\\ExitPollSystem\\contracts\\Election.sol",
  "compiler": {
    "name": "solc",
    "version": "0.8.16+commit.07a7930e.Emscripten.clang"
  },
  "schemaVersion": "3.4.9",
  "updatedAt": "2022-10-01T17:54:45.978Z",
  "devdoc": {
    "kind": "dev",
    "methods": {},
    "version": 1
  },
  "userdoc": {
    "kind": "user",
    "methods": {},
    "version": 1
  }
}